{
  "_format": "hh-sol-artifact-1",
  "contractName": "PimpGame",
  "sourceName": "contracts/PimpGame.sol",
  "abi": [
    {
      "inputs": [
        {
          "internalType": "string[]",
          "name": "characterNames",
          "type": "string[]"
        },
        {
          "internalType": "string[]",
          "name": "characterImageURIs",
          "type": "string[]"
        },
        {
          "internalType": "uint256[]",
          "name": "characterHp",
          "type": "uint256[]"
        },
        {
          "internalType": "uint256[]",
          "name": "characterCharisma",
          "type": "uint256[]"
        },
        {
          "internalType": "uint256[]",
          "name": "characterStreetCred",
          "type": "uint256[]"
        },
        {
          "internalType": "string",
          "name": "copName",
          "type": "string"
        },
        {
          "internalType": "string",
          "name": "copImageURI",
          "type": "string"
        },
        {
          "internalType": "uint256",
          "name": "copHp",
          "type": "uint256"
        },
        {
          "internalType": "uint256",
          "name": "copStreetCred",
          "type": "uint256"
        }
      ],
      "stateMutability": "nonpayable",
      "type": "constructor"
    },
    {
      "anonymous": false,
      "inputs": [
        {
          "indexed": true,
          "internalType": "address",
          "name": "owner",
          "type": "address"
        },
        {
          "indexed": true,
          "internalType": "address",
          "name": "approved",
          "type": "address"
        },
        {
          "indexed": true,
          "internalType": "uint256",
          "name": "tokenId",
          "type": "uint256"
        }
      ],
      "name": "Approval",
      "type": "event"
    },
    {
      "anonymous": false,
      "inputs": [
        {
          "indexed": true,
          "internalType": "address",
          "name": "owner",
          "type": "address"
        },
        {
          "indexed": true,
          "internalType": "address",
          "name": "operator",
          "type": "address"
        },
        {
          "indexed": false,
          "internalType": "bool",
          "name": "approved",
          "type": "bool"
        }
      ],
      "name": "ApprovalForAll",
      "type": "event"
    },
    {
      "anonymous": false,
      "inputs": [
        {
          "indexed": false,
          "internalType": "uint256",
          "name": "newCopHp",
          "type": "uint256"
        },
        {
          "indexed": false,
          "internalType": "uint256",
          "name": "newPlayerHp",
          "type": "uint256"
        }
      ],
      "name": "AttackComplete",
      "type": "event"
    },
    {
      "anonymous": false,
      "inputs": [
        {
          "indexed": false,
          "internalType": "address",
          "name": "sender",
          "type": "address"
        },
        {
          "indexed": false,
          "internalType": "uint256",
          "name": "tokenId",
          "type": "uint256"
        },
        {
          "indexed": false,
          "internalType": "uint256",
          "name": "characterIndex",
          "type": "uint256"
        }
      ],
      "name": "CharacterNFTMinted",
      "type": "event"
    },
    {
      "anonymous": false,
      "inputs": [
        {
          "indexed": true,
          "internalType": "address",
          "name": "from",
          "type": "address"
        },
        {
          "indexed": true,
          "internalType": "address",
          "name": "to",
          "type": "address"
        },
        {
          "indexed": true,
          "internalType": "uint256",
          "name": "tokenId",
          "type": "uint256"
        }
      ],
      "name": "Transfer",
      "type": "event"
    },
    {
      "inputs": [
        {
          "internalType": "address",
          "name": "to",
          "type": "address"
        },
        {
          "internalType": "uint256",
          "name": "tokenId",
          "type": "uint256"
        }
      ],
      "name": "approve",
      "outputs": [],
      "stateMutability": "nonpayable",
      "type": "function"
    },
    {
      "inputs": [
        {
          "internalType": "address",
          "name": "owner",
          "type": "address"
        }
      ],
      "name": "balanceOf",
      "outputs": [
        {
          "internalType": "uint256",
          "name": "",
          "type": "uint256"
        }
      ],
      "stateMutability": "view",
      "type": "function"
    },
    {
      "inputs": [],
      "name": "cop",
      "outputs": [
        {
          "internalType": "uint256",
          "name": "characterIndex",
          "type": "uint256"
        },
        {
          "internalType": "string",
          "name": "name",
          "type": "string"
        },
        {
          "internalType": "string",
          "name": "imageURI",
          "type": "string"
        },
        {
          "internalType": "uint256",
          "name": "hp",
          "type": "uint256"
        },
        {
          "internalType": "uint256",
          "name": "maxHp",
          "type": "uint256"
        },
        {
          "internalType": "uint256",
          "name": "streetCred",
          "type": "uint256"
        }
      ],
      "stateMutability": "view",
      "type": "function"
    },
    {
      "inputs": [],
      "name": "getAllPrototypeCharacters",
      "outputs": [
        {
          "components": [
            {
              "internalType": "uint256",
              "name": "characterIndex",
              "type": "uint256"
            },
            {
              "internalType": "string",
              "name": "name",
              "type": "string"
            },
            {
              "internalType": "string",
              "name": "imageURI",
              "type": "string"
            },
            {
              "internalType": "uint256",
              "name": "hp",
              "type": "uint256"
            },
            {
              "internalType": "uint256",
              "name": "maxHp",
              "type": "uint256"
            },
            {
              "internalType": "uint256",
              "name": "charisma",
              "type": "uint256"
            },
            {
              "internalType": "uint256",
              "name": "streetCred",
              "type": "uint256"
            }
          ],
          "internalType": "struct PimpGame.CharacterAttributes[]",
          "name": "",
          "type": "tuple[]"
        }
      ],
      "stateMutability": "view",
      "type": "function"
    },
    {
      "inputs": [
        {
          "internalType": "uint256",
          "name": "tokenId",
          "type": "uint256"
        }
      ],
      "name": "getApproved",
      "outputs": [
        {
          "internalType": "address",
          "name": "",
          "type": "address"
        }
      ],
      "stateMutability": "view",
      "type": "function"
    },
    {
      "inputs": [],
      "name": "getCop",
      "outputs": [
        {
          "components": [
            {
              "internalType": "uint256",
              "name": "characterIndex",
              "type": "uint256"
            },
            {
              "internalType": "string",
              "name": "name",
              "type": "string"
            },
            {
              "internalType": "string",
              "name": "imageURI",
              "type": "string"
            },
            {
              "internalType": "uint256",
              "name": "hp",
              "type": "uint256"
            },
            {
              "internalType": "uint256",
              "name": "maxHp",
              "type": "uint256"
            },
            {
              "internalType": "uint256",
              "name": "streetCred",
              "type": "uint256"
            }
          ],
          "internalType": "struct PimpGame.Cop",
          "name": "",
          "type": "tuple"
        }
      ],
      "stateMutability": "view",
      "type": "function"
    },
    {
      "inputs": [],
      "name": "getUserOwnedNFTs",
      "outputs": [
        {
          "components": [
            {
              "internalType": "uint256",
              "name": "characterIndex",
              "type": "uint256"
            },
            {
              "internalType": "string",
              "name": "name",
              "type": "string"
            },
            {
              "internalType": "string",
              "name": "imageURI",
              "type": "string"
            },
            {
              "internalType": "uint256",
              "name": "hp",
              "type": "uint256"
            },
            {
              "internalType": "uint256",
              "name": "maxHp",
              "type": "uint256"
            },
            {
              "internalType": "uint256",
              "name": "charisma",
              "type": "uint256"
            },
            {
              "internalType": "uint256",
              "name": "streetCred",
              "type": "uint256"
            }
          ],
          "internalType": "struct PimpGame.CharacterAttributes[]",
          "name": "",
          "type": "tuple[]"
        }
      ],
      "stateMutability": "view",
      "type": "function"
    },
    {
      "inputs": [
        {
          "internalType": "address",
          "name": "owner",
          "type": "address"
        },
        {
          "internalType": "address",
          "name": "operator",
          "type": "address"
        }
      ],
      "name": "isApprovedForAll",
      "outputs": [
        {
          "internalType": "bool",
          "name": "",
          "type": "bool"
        }
      ],
      "stateMutability": "view",
      "type": "function"
    },
    {
      "inputs": [
        {
          "internalType": "uint256",
          "name": "_tokenId",
          "type": "uint256"
        }
      ],
      "name": "isUserOwnerOfNFT",
      "outputs": [
        {
          "internalType": "bool",
          "name": "",
          "type": "bool"
        }
      ],
      "stateMutability": "view",
      "type": "function"
    },
    {
      "inputs": [
        {
          "internalType": "uint256",
          "name": "_characterIndex",
          "type": "uint256"
        }
      ],
      "name": "mintCharacterNFT",
      "outputs": [],
      "stateMutability": "nonpayable",
      "type": "function"
    },
    {
      "inputs": [],
      "name": "name",
      "outputs": [
        {
          "internalType": "string",
          "name": "",
          "type": "string"
        }
      ],
      "stateMutability": "view",
      "type": "function"
    },
    {
      "inputs": [
        {
          "internalType": "uint256",
          "name": "tokenId",
          "type": "uint256"
        }
      ],
      "name": "ownerOf",
      "outputs": [
        {
          "internalType": "address",
          "name": "",
          "type": "address"
        }
      ],
      "stateMutability": "view",
      "type": "function"
    },
    {
      "inputs": [
        {
          "internalType": "address",
          "name": "",
          "type": "address"
        },
        {
          "internalType": "uint256",
          "name": "",
          "type": "uint256"
        }
      ],
      "name": "ownerToNFTTokenIds",
      "outputs": [
        {
          "internalType": "uint256",
          "name": "",
          "type": "uint256"
        }
      ],
      "stateMutability": "view",
      "type": "function"
    },
    {
      "inputs": [
        {
          "internalType": "uint256",
          "name": "",
          "type": "uint256"
        }
      ],
      "name": "pimpToOwner",
      "outputs": [
        {
          "internalType": "address",
          "name": "",
          "type": "address"
        }
      ],
      "stateMutability": "view",
      "type": "function"
    },
    {
      "inputs": [
        {
          "internalType": "address",
          "name": "to",
          "type": "address"
        },
        {
          "internalType": "uint256",
          "name": "tokenId",
          "type": "uint256"
        }
      ],
      "name": "prepareRaid",
      "outputs": [],
      "stateMutability": "nonpayable",
      "type": "function"
    },
    {
      "inputs": [
        {
          "internalType": "uint256",
          "name": "tokenId",
          "type": "uint256"
        }
      ],
      "name": "raidCop",
      "outputs": [],
      "stateMutability": "nonpayable",
      "type": "function"
    },
    {
      "inputs": [],
      "name": "raidFromPack",
      "outputs": [],
      "stateMutability": "nonpayable",
      "type": "function"
    },
    {
      "inputs": [
        {
          "internalType": "uint256",
          "name": "",
          "type": "uint256"
        }
      ],
      "name": "raidPool",
      "outputs": [
        {
          "internalType": "uint256",
          "name": "",
          "type": "uint256"
        }
      ],
      "stateMutability": "view",
      "type": "function"
    },
    {
      "inputs": [
        {
          "internalType": "uint256",
          "name": "_tokenIdToRemove",
          "type": "uint256"
        }
      ],
      "name": "removeTokenIdFromOwnerToTokenId",
      "outputs": [],
      "stateMutability": "nonpayable",
      "type": "function"
    },
    {
      "inputs": [
        {
          "internalType": "address",
          "name": "from",
          "type": "address"
        },
        {
          "internalType": "address",
          "name": "to",
          "type": "address"
        },
        {
          "internalType": "uint256",
          "name": "tokenId",
          "type": "uint256"
        }
      ],
      "name": "safeTransferFrom",
      "outputs": [],
      "stateMutability": "nonpayable",
      "type": "function"
    },
    {
      "inputs": [
        {
          "internalType": "address",
          "name": "from",
          "type": "address"
        },
        {
          "internalType": "address",
          "name": "to",
          "type": "address"
        },
        {
          "internalType": "uint256",
          "name": "tokenId",
          "type": "uint256"
        },
        {
          "internalType": "bytes",
          "name": "_data",
          "type": "bytes"
        }
      ],
      "name": "safeTransferFrom",
      "outputs": [],
      "stateMutability": "nonpayable",
      "type": "function"
    },
    {
      "inputs": [
        {
          "internalType": "address",
          "name": "operator",
          "type": "address"
        },
        {
          "internalType": "bool",
          "name": "approved",
          "type": "bool"
        }
      ],
      "name": "setApprovalForAll",
      "outputs": [],
      "stateMutability": "nonpayable",
      "type": "function"
    },
    {
      "inputs": [
        {
          "internalType": "bytes4",
          "name": "interfaceId",
          "type": "bytes4"
        }
      ],
      "name": "supportsInterface",
      "outputs": [
        {
          "internalType": "bool",
          "name": "",
          "type": "bool"
        }
      ],
      "stateMutability": "view",
      "type": "function"
    },
    {
      "inputs": [],
      "name": "symbol",
      "outputs": [
        {
          "internalType": "string",
          "name": "",
          "type": "string"
        }
      ],
      "stateMutability": "view",
      "type": "function"
    },
    {
      "inputs": [
        {
          "internalType": "uint256",
          "name": "",
          "type": "uint256"
        }
      ],
      "name": "tokenIdToCharacterAttributes",
      "outputs": [
        {
          "internalType": "uint256",
          "name": "characterIndex",
          "type": "uint256"
        },
        {
          "internalType": "string",
          "name": "name",
          "type": "string"
        },
        {
          "internalType": "string",
          "name": "imageURI",
          "type": "string"
        },
        {
          "internalType": "uint256",
          "name": "hp",
          "type": "uint256"
        },
        {
          "internalType": "uint256",
          "name": "maxHp",
          "type": "uint256"
        },
        {
          "internalType": "uint256",
          "name": "charisma",
          "type": "uint256"
        },
        {
          "internalType": "uint256",
          "name": "streetCred",
          "type": "uint256"
        }
      ],
      "stateMutability": "view",
      "type": "function"
    },
    {
      "inputs": [
        {
          "internalType": "uint256",
          "name": "_tokenId",
          "type": "uint256"
        }
      ],
      "name": "tokenURI",
      "outputs": [
        {
          "internalType": "string",
          "name": "",
          "type": "string"
        }
      ],
      "stateMutability": "view",
      "type": "function"
    },
    {
      "inputs": [
        {
          "internalType": "address",
          "name": "from",
          "type": "address"
        },
        {
          "internalType": "address",
          "name": "to",
          "type": "address"
        },
        {
          "internalType": "uint256",
          "name": "tokenId",
          "type": "uint256"
        }
      ],
      "name": "transferFrom",
      "outputs": [],
      "stateMutability": "nonpayable",
      "type": "function"
    }
  ],
  "bytecode": "0x60806040523480156200001157600080fd5b5060405162006bdd38038062006bdd833981810160405281019062000037919062000bbd565b6040518060400160405280600881526020017f50696d707326436f0000000000000000000000000000000000000000000000008152506040518060400160405280600481526020017f50494d50000000000000000000000000000000000000000000000000000000008152508160009080519060200190620000bb92919062000950565b508060019080519060200190620000d492919062000950565b5050506040518060c00160405280600181526020018581526020018481526020018381526020018381526020018281525060066000820151816000015560208201518160010190805190602001906200012f92919062000950565b5060408201518160020190805190602001906200014e92919062000950565b50606082015181600301556080820151816004015560a08201518160050155905050620002d160405180606001604052806025815260200162006bb86025913960066001018054620001a09062000fab565b80601f0160208091040260200160405190810160405280929190818152602001828054620001ce9062000fab565b80156200021f5780601f10620001f3576101008083540402835291602001916200021f565b820191906000526020600020905b8154815290600101906020018083116200020157829003601f168201915b5050505050600660030154600660020180546200023c9062000fab565b80601f01602080910402602001604051908101604052809291908181526020018280546200026a9062000fab565b8015620002bb5780601f106200028f57610100808354040283529160200191620002bb565b820191906000526020600020905b8154815290600101906020018083116200029d57829003601f168201915b5050505050620007bf60201b620022361760201c565b60005b89518110156200079857600d6040518060e001604052808381526020018c84815181106200032b577f4e487b7100000000000000000000000000000000000000000000000000000000600052603260045260246000fd5b602002602001015181526020018b848151811062000372577f4e487b7100000000000000000000000000000000000000000000000000000000600052603260045260246000fd5b602002602001015181526020018a8481518110620003b9577f4e487b7100000000000000000000000000000000000000000000000000000000600052603260045260246000fd5b602002602001015181526020018a848151811062000400577f4e487b7100000000000000000000000000000000000000000000000000000000600052603260045260246000fd5b6020026020010151815260200189848151811062000447577f4e487b7100000000000000000000000000000000000000000000000000000000600052603260045260246000fd5b602002602001015181526020018884815181106200048e577f4e487b7100000000000000000000000000000000000000000000000000000000600052603260045260246000fd5b60200260200101518152509080600181540180825580915050600190039060005260206000209060070201600090919091909150600082015181600001556020820151816001019080519060200190620004ea92919062000950565b5060408201518160020190805190602001906200050992919062000950565b50606082015181600301556080820151816004015560a0820151816005015560c0820151816006015550506000600d828154811062000571577f4e487b7100000000000000000000000000000000000000000000000000000000600052603260045260246000fd5b90600052602060002090600702016040518060e001604052908160008201548152602001600182018054620005a69062000fab565b80601f0160208091040260200160405190810160405280929190818152602001828054620005d49062000fab565b8015620006255780601f10620005f95761010080835404028352916020019162000625565b820191906000526020600020905b8154815290600101906020018083116200060757829003601f168201915b50505050508152602001600282018054620006409062000fab565b80601f01602080910402602001604051908101604052809291908181526020018280546200066e9062000fab565b8015620006bf5780601f106200069357610100808354040283529160200191620006bf565b820191906000526020600020905b815481529060010190602001808311620006a157829003601f168201915b505050505081526020016003820154815260200160048201548152602001600582015481526020016006820154815250509050620007426040518060400160405280600881526020017f2d2d20496e64657800000000000000000000000000000000000000000000000081525082600001516200086b60201b620022d81760201c565b6200078060405180606001604052806028815260200162006b9060289139826020015183606001518460400151620007bf60201b620022361760201c565b5060018162000790919062000f0e565b9050620002d4565b50620007b0600c6200091160201b620023741760201c565b50505050505050505062001099565b6200086584848484604051602401620007dc949392919062000d97565b6040516020818303038152906040527f8d142cdd000000000000000000000000000000000000000000000000000000007bffffffffffffffffffffffffffffffffffffffffffffffffffffffff19166020820180517bffffffffffffffffffffffffffffffffffffffffffffffffffffffff83818316178352505050506200092760201b60201c565b50505050565b6200090d82826040516024016200088492919062000df9565b6040516020818303038152906040527f9710a9d0000000000000000000000000000000000000000000000000000000007bffffffffffffffffffffffffffffffffffffffffffffffffffffffff19166020820180517bffffffffffffffffffffffffffffffffffffffffffffffffffffffff83818316178352505050506200092760201b60201c565b5050565b6001816000016000828254019250508190555050565b60008151905060006a636f6e736f6c652e6c6f679050602083016000808483855afa5050505050565b8280546200095e9062000fab565b90600052602060002090601f016020900481019282620009825760008555620009ce565b82601f106200099d57805160ff1916838001178555620009ce565b82800160010185558215620009ce579182015b82811115620009cd578251825591602001919060010190620009b0565b5b509050620009dd9190620009e1565b5090565b5b80821115620009fc576000816000905550600101620009e2565b5090565b600062000a1762000a118462000e61565b62000e2d565b9050808382526020820190508260005b8581101562000a5b578151850162000a40888262000b79565b84526020840193506020830192505060018101905062000a27565b5050509392505050565b600062000a7c62000a768462000e90565b62000e2d565b9050808382526020820190508285602086028201111562000a9c57600080fd5b60005b8581101562000ad0578162000ab5888262000ba6565b84526020840193506020830192505060018101905062000a9f565b5050509392505050565b600062000af162000aeb8462000ebf565b62000e2d565b90508281526020810184848401111562000b0a57600080fd5b62000b1784828562000f75565b509392505050565b600082601f83011262000b3157600080fd5b815162000b4384826020860162000a00565b91505092915050565b600082601f83011262000b5e57600080fd5b815162000b7084826020860162000a65565b91505092915050565b600082601f83011262000b8b57600080fd5b815162000b9d84826020860162000ada565b91505092915050565b60008151905062000bb7816200107f565b92915050565b60008060008060008060008060006101208a8c03121562000bdd57600080fd5b60008a015167ffffffffffffffff81111562000bf857600080fd5b62000c068c828d0162000b1f565b99505060208a015167ffffffffffffffff81111562000c2457600080fd5b62000c328c828d0162000b1f565b98505060408a015167ffffffffffffffff81111562000c5057600080fd5b62000c5e8c828d0162000b4c565b97505060608a015167ffffffffffffffff81111562000c7c57600080fd5b62000c8a8c828d0162000b4c565b96505060808a015167ffffffffffffffff81111562000ca857600080fd5b62000cb68c828d0162000b4c565b95505060a08a015167ffffffffffffffff81111562000cd457600080fd5b62000ce28c828d0162000b79565b94505060c08a015167ffffffffffffffff81111562000d0057600080fd5b62000d0e8c828d0162000b79565b93505060e062000d218c828d0162000ba6565b92505061010062000d358c828d0162000ba6565b9150509295985092959850929598565b600062000d528262000ef2565b62000d5e818562000efd565b935062000d7081856020860162000f75565b62000d7b816200106e565b840191505092915050565b62000d918162000f6b565b82525050565b6000608082019050818103600083015262000db3818762000d45565b9050818103602083015262000dc9818662000d45565b905062000dda604083018562000d86565b818103606083015262000dee818462000d45565b905095945050505050565b6000604082019050818103600083015262000e15818562000d45565b905062000e26602083018462000d86565b9392505050565b6000604051905081810181811067ffffffffffffffff8211171562000e575762000e566200103f565b5b8060405250919050565b600067ffffffffffffffff82111562000e7f5762000e7e6200103f565b5b602082029050602081019050919050565b600067ffffffffffffffff82111562000eae5762000ead6200103f565b5b602082029050602081019050919050565b600067ffffffffffffffff82111562000edd5762000edc6200103f565b5b601f19601f8301169050602081019050919050565b600081519050919050565b600082825260208201905092915050565b600062000f1b8262000f6b565b915062000f288362000f6b565b9250827fffffffffffffffffffffffffffffffffffffffffffffffffffffffffffffffff0382111562000f605762000f5f62000fe1565b5b828201905092915050565b6000819050919050565b60005b8381101562000f9557808201518184015260208101905062000f78565b8381111562000fa5576000848401525b50505050565b6000600282049050600182168062000fc457607f821691505b6020821081141562000fdb5762000fda62001010565b5b50919050565b7f4e487b7100000000000000000000000000000000000000000000000000000000600052601160045260246000fd5b7f4e487b7100000000000000000000000000000000000000000000000000000000600052602260045260246000fd5b7f4e487b7100000000000000000000000000000000000000000000000000000000600052604160045260246000fd5b6000601f19601f8301169050919050565b6200108a8162000f6b565b81146200109657600080fd5b50565b615ae780620010a96000396000f3fe608060405234801561001057600080fd5b50600436106101a95760003560e01c806370a08231116100f9578063dd595b5211610097578063f0586e2f11610071578063f0586e2f146104e9578063f0a746a314610507578063f8b81ef714610537578063fee40dd914610553576101a9565b8063dd595b521461047f578063e7bfce3f1461049d578063e985e9c5146104b9576101a9565b8063a22cb465116100d3578063a22cb465146103f9578063b88d4fde14610415578063c2d86dfe14610431578063c87b56dd1461044f576101a9565b806370a08231146103a15780638d360db0146103d157806395d89b41146103db576101a9565b80632a6f4340116101665780635f7efbea116101405780635f7efbea146103025780636352211e14610325578063635c4b3a146103555780636b60a03614610371576101a9565b80632a6f43401461029a5780633f3c2666146102ca57806342842e0e146102e6576101a9565b806301ffc9a7146101ae5780630549795e146101de57806306fdde0314610214578063081812fc14610232578063095ea7b31461026257806323b872dd1461027e575b600080fd5b6101c860048036038101906101c391906140c7565b610583565b6040516101d59190614e18565b60405180910390f35b6101f860048036038101906101f39190614119565b610665565b60405161020b9796959493929190615296565b60405180910390f35b61021c6107b7565b6040516102299190614e33565b60405180910390f35b61024c60048036038101906102479190614119565b610849565b6040516102599190614d58565b60405180910390f35b61027c6004803603810190610277919061408b565b6108ce565b005b61029860048036038101906102939190613f85565b6109e6565b005b6102b460048036038101906102af9190614119565b610a46565b6040516102c1919061520c565b60405180910390f35b6102e460048036038101906102df9190614119565b610a6a565b005b61030060048036038101906102fb9190613f85565b610d26565b005b61030a610d46565b60405161031c96959493929190615227565b60405180910390f35b61033f600480360381019061033a9190614119565b610e80565b60405161034c9190614d58565b60405180910390f35b61036f600480360381019061036a919061408b565b610f32565b005b61038b60048036038101906103869190614119565b61104a565b6040516103989190614d58565b60405180910390f35b6103bb60048036038101906103b69190613f20565b61107d565b6040516103c8919061520c565b60405180910390f35b6103d9611135565b005b6103e3611188565b6040516103f09190614e33565b60405180910390f35b610413600480360381019061040e919061404f565b61121a565b005b61042f600480360381019061042a9190613fd4565b611230565b005b610439611292565b6040516104469190614df6565b60405180910390f35b61046960048036038101906104649190614119565b6115d5565b6040516104769190614e33565b60405180910390f35b61048761180e565b6040516104949190614df6565b60405180910390f35b6104b760048036038101906104b29190614119565b6119c3565b005b6104d360048036038101906104ce9190613f49565b611ab4565b6040516104e09190614e18565b60405180910390f35b6104f1611b48565b6040516104fe91906151ea565b60405180910390f35b610521600480360381019061051c919061408b565b611cae565b60405161052e919061520c565b60405180910390f35b610551600480360381019061054c9190614119565b611cdf565b005b61056d60048036038101906105689190614119565b6121a3565b60405161057a9190614e18565b60405180910390f35b60007f80ac58cd000000000000000000000000000000000000000000000000000000007bffffffffffffffffffffffffffffffffffffffffffffffffffffffff1916827bffffffffffffffffffffffffffffffffffffffffffffffffffffffff1916148061064e57507f5b5e139f000000000000000000000000000000000000000000000000000000007bffffffffffffffffffffffffffffffffffffffffffffffffffffffff1916827bffffffffffffffffffffffffffffffffffffffffffffffffffffffff1916145b8061065e575061065d8261238a565b5b9050919050565b600f60205280600052604060002060009150905080600001549080600101805461068e906157a4565b80601f01602080910402602001604051908101604052809291908181526020018280546106ba906157a4565b80156107075780601f106106dc57610100808354040283529160200191610707565b820191906000526020600020905b8154815290600101906020018083116106ea57829003601f168201915b50505050509080600201805461071c906157a4565b80601f0160208091040260200160405190810160405280929190818152602001828054610748906157a4565b80156107955780601f1061076a57610100808354040283529160200191610795565b820191906000526020600020905b81548152906001019060200180831161077857829003601f168201915b5050505050908060030154908060040154908060050154908060060154905087565b6060600080546107c6906157a4565b80601f01602080910402602001604051908101604052809291908181526020018280546107f2906157a4565b801561083f5780601f106108145761010080835404028352916020019161083f565b820191906000526020600020905b81548152906001019060200180831161082257829003601f168201915b5050505050905090565b6000610854826123f4565b610893576040517f08c379a000000000000000000000000000000000000000000000000000000000815260040161088a9061514a565b60405180910390fd5b6004600083815260200190815260200160002060009054906101000a900473ffffffffffffffffffffffffffffffffffffffff169050919050565b60006108d982610e80565b90508073ffffffffffffffffffffffffffffffffffffffff168373ffffffffffffffffffffffffffffffffffffffff16141561094a576040517f08c379a00000000000000000000000000000000000000000000000000000000081526004016109419061518a565b60405180910390fd5b8073ffffffffffffffffffffffffffffffffffffffff16610969612460565b73ffffffffffffffffffffffffffffffffffffffff161480610998575061099781610992612460565b611ab4565b5b6109d7576040517f08c379a00000000000000000000000000000000000000000000000000000000081526004016109ce906150ca565b60405180910390fd5b6109e18383612468565b505050565b6109f76109f1612460565b82612521565b610a36576040517f08c379a0000000000000000000000000000000000000000000000000000000008152600401610a2d906151ca565b60405180910390fd5b610a418383836125ff565b505050565b600e8181548110610a5657600080fd5b906000526020600020016000915090505481565b6000601160003373ffffffffffffffffffffffffffffffffffffffff1673ffffffffffffffffffffffffffffffffffffffff1681526020019081526020016000209050600060018280549050610ac091906156ba565b905060008167ffffffffffffffff811115610b04577f4e487b7100000000000000000000000000000000000000000000000000000000600052604160045260246000fd5b604051908082528060200260200182016040528015610b325781602001602082028036833780820191505090505b509050600080600190505b60018580549050610b4e91906156ba565b8111610cca5785858281548110610b8e577f4e487b7100000000000000000000000000000000000000000000000000000000600052603260045260246000fd5b906000526020600020015414610cb657848181548110610bd7577f4e487b7100000000000000000000000000000000000000000000000000000000600052603260045260246000fd5b9060005260206000200154838381518110610c1b577f4e487b7100000000000000000000000000000000000000000000000000000000600052603260045260246000fd5b602002602001018181525050610ca7826040518060400160405280600481526020017f203d3d2000000000000000000000000000000000000000000000000000000000815250858581518110610c9a577f4e487b7100000000000000000000000000000000000000000000000000000000600052603260045260246000fd5b602002602001015161285b565b8180610cb2906157d6565b9250505b600181610cc39190615468565b9050610b3d565b5081601160003373ffffffffffffffffffffffffffffffffffffffff1673ffffffffffffffffffffffffffffffffffffffff1681526020019081526020016000209080519060200190610d1e929190613cec565b505050505050565b610d4183838360405180602001604052806000815250611230565b505050565b6006806000015490806001018054610d5d906157a4565b80601f0160208091040260200160405190810160405280929190818152602001828054610d89906157a4565b8015610dd65780601f10610dab57610100808354040283529160200191610dd6565b820191906000526020600020905b815481529060010190602001808311610db957829003601f168201915b505050505090806002018054610deb906157a4565b80601f0160208091040260200160405190810160405280929190818152602001828054610e17906157a4565b8015610e645780601f10610e3957610100808354040283529160200191610e64565b820191906000526020600020905b815481529060010190602001808311610e4757829003601f168201915b5050505050908060030154908060040154908060050154905086565b6000806002600084815260200190815260200160002060009054906101000a900473ffffffffffffffffffffffffffffffffffffffff169050600073ffffffffffffffffffffffffffffffffffffffff168173ffffffffffffffffffffffffffffffffffffffff161415610f29576040517f08c379a0000000000000000000000000000000000000000000000000000000008152600401610f209061510a565b60405180910390fd5b80915050919050565b3373ffffffffffffffffffffffffffffffffffffffff166010600083815260200190815260200160002060009054906101000a900473ffffffffffffffffffffffffffffffffffffffff1673ffffffffffffffffffffffffffffffffffffffff16141561102457610fa4338383610d26565b600e819080600181540180825580915050600190039060005260206000200160009091909190915055306010600083815260200190815260200160002060006101000a81548173ffffffffffffffffffffffffffffffffffffffff021916908373ffffffffffffffffffffffffffffffffffffffff160217905550611046565b6110456040518060600160405280602d81526020016159c6602d91396128fa565b5b5050565b60106020528060005260406000206000915054906101000a900473ffffffffffffffffffffffffffffffffffffffff1681565b60008073ffffffffffffffffffffffffffffffffffffffff168273ffffffffffffffffffffffffffffffffffffffff1614156110ee576040517f08c379a00000000000000000000000000000000000000000000000000000000081526004016110e5906150ea565b60405180910390fd5b600360008373ffffffffffffffffffffffffffffffffffffffff1673ffffffffffffffffffffffffffffffffffffffff168152602001908152602001600020549050919050565b6000600e8054905090506000600190505b60018261115391906156ba565b811015611184576111708160048461116b9190615660565b612993565b60018161117d9190615468565b9050611146565b5050565b606060018054611197906157a4565b80601f01602080910402602001604051908101604052809291908181526020018280546111c3906157a4565b80156112105780601f106111e557610100808354040283529160200191611210565b820191906000526020600020905b8154815290600101906020018083116111f357829003601f168201915b5050505050905090565b61122c611225612460565b8383613030565b5050565b61124161123b612460565b83612521565b611280576040517f08c379a0000000000000000000000000000000000000000000000000000000008152600401611277906151ca565b60405180910390fd5b61128c8484848461319d565b50505050565b60606000601160003373ffffffffffffffffffffffffffffffffffffffff1673ffffffffffffffffffffffffffffffffffffffff16815260200190815260200160002080548060200260200160405190810160405280929190818152602001828054801561131f57602002820191906000526020600020905b81548152602001906001019080831161130b575b50505050509050606060008251905060008111156115cc578067ffffffffffffffff811115611377577f4e487b7100000000000000000000000000000000000000000000000000000000600052604160045260246000fd5b6040519080825280602002602001820160405280156113b057816020015b61139d613d39565b8152602001906001900390816113955790505b50915060005b818110156115ca57600f60008583815181106113fb577f4e487b7100000000000000000000000000000000000000000000000000000000600052603260045260246000fd5b602002602001015181526020019081526020016000206040518060e001604052908160008201548152602001600182018054611436906157a4565b80601f0160208091040260200160405190810160405280929190818152602001828054611462906157a4565b80156114af5780601f10611484576101008083540402835291602001916114af565b820191906000526020600020905b81548152906001019060200180831161149257829003601f168201915b505050505081526020016002820180546114c8906157a4565b80601f01602080910402602001604051908101604052809291908181526020018280546114f4906157a4565b80156115415780601f1061151657610100808354040283529160200191611541565b820191906000526020600020905b81548152906001019060200180831161152457829003601f168201915b505050505081526020016003820154815260200160048201548152602001600582015481526020016006820154815250508382815181106115ab577f4e487b7100000000000000000000000000000000000000000000000000000000600052603260045260246000fd5b60200260200101819052506001816115c39190615468565b90506113b6565b505b81935050505090565b60606000600f60008481526020019081526020016000206040518060e001604052908160008201548152602001600182018054611611906157a4565b80601f016020809104026020016040519081016040528092919081815260200182805461163d906157a4565b801561168a5780601f1061165f5761010080835404028352916020019161168a565b820191906000526020600020905b81548152906001019060200180831161166d57829003601f168201915b505050505081526020016002820180546116a3906157a4565b80601f01602080910402602001604051908101604052809291908181526020018280546116cf906157a4565b801561171c5780601f106116f15761010080835404028352916020019161171c565b820191906000526020600020905b8154815290600101906020018083116116ff57829003601f168201915b505050505081526020016003820154815260200160048201548152602001600582015481526020016006820154815250509050600061175e82606001516131f9565b9050600061176f83608001516131f9565b905060006117808460a001516131f9565b905060006117918560c001516131f9565b905060006117d986602001516117a68a6131f9565b8860400151888888886040516020016117c59796959493929190614c4d565b6040516020818303038152906040526133a6565b90506000816040516020016117ee9190614d0a565b604051602081830303815290604052905080975050505050505050919050565b6060600d805480602002602001604051908101604052809291908181526020016000905b828210156119ba57838290600052602060002090600702016040518060e00160405290816000820154815260200160018201805461186f906157a4565b80601f016020809104026020016040519081016040528092919081815260200182805461189b906157a4565b80156118e85780601f106118bd576101008083540402835291602001916118e8565b820191906000526020600020905b8154815290600101906020018083116118cb57829003601f168201915b50505050508152602001600282018054611901906157a4565b80601f016020809104026020016040519081016040528092919081815260200182805461192d906157a4565b801561197a5780601f1061194f5761010080835404028352916020019161197a565b820191906000526020600020905b81548152906001019060200180831161195d57829003601f168201915b5050505050815260200160038201548152602001600482015481526020016005820154815260200160068201548152505081526020019060010190611832565b50505050905090565b611a18604051806060016040528060228152602001615a33602291396010600084815260200190815260200160002060009054906101000a900473ffffffffffffffffffffffffffffffffffffffff16613564565b6010600082815260200190815260200160002060009054906101000a900473ffffffffffffffffffffffffffffffffffffffff1673ffffffffffffffffffffffffffffffffffffffff163373ffffffffffffffffffffffffffffffffffffffff161415611a8f57611a8a816001612993565b611ab1565b611ab06040518060600160405280602d81526020016159c6602d91396128fa565b5b50565b6000600560008473ffffffffffffffffffffffffffffffffffffffff1673ffffffffffffffffffffffffffffffffffffffff16815260200190815260200160002060008373ffffffffffffffffffffffffffffffffffffffff1673ffffffffffffffffffffffffffffffffffffffff16815260200190815260200160002060009054906101000a900460ff16905092915050565b611b50613d76565b60066040518060c001604052908160008201548152602001600182018054611b77906157a4565b80601f0160208091040260200160405190810160405280929190818152602001828054611ba3906157a4565b8015611bf05780601f10611bc557610100808354040283529160200191611bf0565b820191906000526020600020905b815481529060010190602001808311611bd357829003601f168201915b50505050508152602001600282018054611c09906157a4565b80601f0160208091040260200160405190810160405280929190818152602001828054611c35906157a4565b8015611c825780601f10611c5757610100808354040283529160200191611c82565b820191906000526020600020905b815481529060010190602001808311611c6557829003601f168201915b505050505081526020016003820154815260200160048201548152602001600582015481525050905090565b60116020528160005260406000208181548110611cca57600080fd5b90600052602060002001600091509150505481565b6000611ceb600c613600565b9050611cf7338261360e565b6040518060e00160405280838152602001600d8481548110611d42577f4e487b7100000000000000000000000000000000000000000000000000000000600052603260045260246000fd5b90600052602060002090600702016001018054611d5e906157a4565b80601f0160208091040260200160405190810160405280929190818152602001828054611d8a906157a4565b8015611dd75780601f10611dac57610100808354040283529160200191611dd7565b820191906000526020600020905b815481529060010190602001808311611dba57829003601f168201915b50505050508152602001600d8481548110611e1b577f4e487b7100000000000000000000000000000000000000000000000000000000600052603260045260246000fd5b90600052602060002090600702016002018054611e37906157a4565b80601f0160208091040260200160405190810160405280929190818152602001828054611e63906157a4565b8015611eb05780601f10611e8557610100808354040283529160200191611eb0565b820191906000526020600020905b815481529060010190602001808311611e9357829003601f168201915b50505050508152602001600d8481548110611ef4577f4e487b7100000000000000000000000000000000000000000000000000000000600052603260045260246000fd5b9060005260206000209060070201600301548152602001600d8481548110611f45577f4e487b7100000000000000000000000000000000000000000000000000000000600052603260045260246000fd5b9060005260206000209060070201600401548152602001600d8481548110611f96577f4e487b7100000000000000000000000000000000000000000000000000000000600052603260045260246000fd5b9060005260206000209060070201600501548152602001600d8481548110611fe7577f4e487b7100000000000000000000000000000000000000000000000000000000600052603260045260246000fd5b906000526020600020906007020160060154815250600f6000838152602001908152602001600020600082015181600001556020820151816001019080519060200190612035929190613dac565b506040820151816002019080519060200190612052929190613dac565b50606082015181600301556080820151816004015560a0820151816005015560c08201518160060155905050601160003373ffffffffffffffffffffffffffffffffffffffff1673ffffffffffffffffffffffffffffffffffffffff1681526020019081526020016000208190806001815401808255809150506001900390600052602060002001600090919091909150556121086040518060600160405280603581526020016159916035913982843361362c565b336010600083815260200190815260200160002060006101000a81548173ffffffffffffffffffffffffffffffffffffffff021916908373ffffffffffffffffffffffffffffffffffffffff160217905550612164600c612374565b7f4bc303fd457a97b4691b9af582ce71868a3d258638c8d4f8c60988a0f0bfb8cd33828460405161219793929190614dbf565b60405180910390a15050565b6000806000601160003373ffffffffffffffffffffffffffffffffffffffff1673ffffffffffffffffffffffffffffffffffffffff168152602001908152602001600020848154811061221f577f4e487b7100000000000000000000000000000000000000000000000000000000600052603260045260246000fd5b906000526020600020015411905080915050919050565b6122d2848484846040516024016122509493929190614f01565b6040516020818303038152906040527f8d142cdd000000000000000000000000000000000000000000000000000000007bffffffffffffffffffffffffffffffffffffffffffffffffffffffff19166020820180517bffffffffffffffffffffffffffffffffffffffffffffffffffffffff83818316178352505050506136ce565b50505050565b61237082826040516024016122ee929190614fae565b6040516020818303038152906040527f9710a9d0000000000000000000000000000000000000000000000000000000007bffffffffffffffffffffffffffffffffffffffffffffffffffffffff19166020820180517bffffffffffffffffffffffffffffffffffffffffffffffffffffffff83818316178352505050506136ce565b5050565b6001816000016000828254019250508190555050565b60007f01ffc9a7000000000000000000000000000000000000000000000000000000007bffffffffffffffffffffffffffffffffffffffffffffffffffffffff1916827bffffffffffffffffffffffffffffffffffffffffffffffffffffffff1916149050919050565b60008073ffffffffffffffffffffffffffffffffffffffff166002600084815260200190815260200160002060009054906101000a900473ffffffffffffffffffffffffffffffffffffffff1673ffffffffffffffffffffffffffffffffffffffff1614159050919050565b600033905090565b816004600083815260200190815260200160002060006101000a81548173ffffffffffffffffffffffffffffffffffffffff021916908373ffffffffffffffffffffffffffffffffffffffff160217905550808273ffffffffffffffffffffffffffffffffffffffff166124db83610e80565b73ffffffffffffffffffffffffffffffffffffffff167f8c5be1e5ebec7d5bd14f71427d1e84f3dd0314c0f7b2291e5b200ac8c7c3b92560405160405180910390a45050565b600061252c826123f4565b61256b576040517f08c379a0000000000000000000000000000000000000000000000000000000008152600401612562906150aa565b60405180910390fd5b600061257683610e80565b90508073ffffffffffffffffffffffffffffffffffffffff168473ffffffffffffffffffffffffffffffffffffffff1614806125e557508373ffffffffffffffffffffffffffffffffffffffff166125cd84610849565b73ffffffffffffffffffffffffffffffffffffffff16145b806125f657506125f58185611ab4565b5b91505092915050565b8273ffffffffffffffffffffffffffffffffffffffff1661261f82610e80565b73ffffffffffffffffffffffffffffffffffffffff1614612675576040517f08c379a000000000000000000000000000000000000000000000000000000000815260040161266c9061516a565b60405180910390fd5b600073ffffffffffffffffffffffffffffffffffffffff168273ffffffffffffffffffffffffffffffffffffffff1614156126e5576040517f08c379a00000000000000000000000000000000000000000000000000000000081526004016126dc9061506a565b60405180910390fd5b6126f08383836136f7565b6126fb600082612468565b6001600360008573ffffffffffffffffffffffffffffffffffffffff1673ffffffffffffffffffffffffffffffffffffffff168152602001908152602001600020600082825461274b91906156ba565b925050819055506001600360008473ffffffffffffffffffffffffffffffffffffffff1673ffffffffffffffffffffffffffffffffffffffff16815260200190815260200160002060008282546127a29190615468565b92505081905550816002600083815260200190815260200160002060006101000a81548173ffffffffffffffffffffffffffffffffffffffff021916908373ffffffffffffffffffffffffffffffffffffffff160217905550808273ffffffffffffffffffffffffffffffffffffffff168473ffffffffffffffffffffffffffffffffffffffff167fddf252ad1be2c89b69c2b068fc378daa952ba7f163c4a11628f55a4df523b3ef60405160405180910390a4505050565b6128f583838360405160240161287393929190615313565b6040516020818303038152906040527f5b6de83f000000000000000000000000000000000000000000000000000000007bffffffffffffffffffffffffffffffffffffffffffffffffffffffff19166020820180517bffffffffffffffffffffffffffffffffffffffffffffffffffffffff83818316178352505050506136ce565b505050565b6129908160405160240161290e9190614e33565b6040516020818303038152906040527f41304fac000000000000000000000000000000000000000000000000000000007bffffffffffffffffffffffffffffffffffffffffffffffffffffffff19166020820180517bffffffffffffffffffffffffffffffffffffffffffffffffffffffff83818316178352505050506136ce565b50565b6129d16040518060400160405280601581526020017f0a526169642077696c6c20737461727420736f6f6e00000000000000000000008152506128fa565b6000600f60008481526020019081526020016000209050612aa0604051806060016040528060388152602001615a7a60389139826001018054612a13906157a4565b80601f0160208091040260200160405190810160405280929190818152602001828054612a3f906157a4565b8015612a8c5780601f10612a6157610100808354040283529160200191612a8c565b820191906000526020600020905b815481529060010190602001808311612a6f57829003601f168201915b5050505050836003015484600601546136fc565b612b5b604051806060016040528060258152602001615a556025913960066001018054612acc906157a4565b80601f0160208091040260200160405190810160405280929190818152602001828054612af8906157a4565b8015612b455780601f10612b1a57610100808354040283529160200191612b45565b820191906000526020600020905b815481529060010190602001808311612b2857829003601f168201915b50505050506006600301546006600501546136fc565b6000816003015411612b7082600301546131f9565b90612bb1576040517f08c379a0000000000000000000000000000000000000000000000000000000008152600401612ba89190614e33565b60405180910390fd5b50600060066003015411612bfa576040517f08c379a0000000000000000000000000000000000000000000000000000000008152600401612bf1906151aa565b60405180910390fd5b600082612c07606461379e565b612c119190615542565b8260060154612c209190615660565b8260060154612c2f9190615468565b90506000612c3d600361379e565b600660050154612c4d9190615660565b90506000818460030154612c6191906156ba565b9050600083600660030154612c7691906156ba565b9050612cb76040518060400160405280601481526020017f2d2050696d702061747461636b65642077697468000000000000000000000000815250856122d8565b612cf66040518060400160405280601381526020017f2d20436f702061747461636b6564207769746800000000000000000000000000815250846122d8565b60008211612dd85760008560030181905550612dd36040518060400160405280600c81526020017f2d20257320697320646561640000000000000000000000000000000000000000815250866001018054612d50906157a4565b80601f0160208091040260200160405190810160405280929190818152602001828054612d7c906157a4565b8015612dc95780601f10612d9e57610100808354040283529160200191612dc9565b820191906000526020600020905b815481529060010190602001808311612dac57829003601f168201915b50505050506137de565b612eb2565b818560030181905550612eb16040518060400160405280601381526020017f2d20257320686173202573206870206c65667400000000000000000000000000815250866001018054612e29906157a4565b80601f0160208091040260200160405190810160405280929190818152602001828054612e55906157a4565b8015612ea25780601f10612e7757610100808354040283529160200191612ea2565b820191906000526020600020905b815481529060010190602001808311612e8557829003601f168201915b5050505050876003015461387a565b5b60008111612f08576000600660030181905550612f036040518060400160405280600d81526020017f2d20436f702069732064656164000000000000000000000000000000000000008152506128fa565b612fe5565b80600660030181905550612fe46040518060400160405280601781526020017f2d20436f7020257320686173202573206870206c65667400000000000000000081525060066001018054612f5b906157a4565b80601f0160208091040260200160405190810160405280929190818152602001828054612f87906157a4565b8015612fd45780601f10612fa957610100808354040283529160200191612fd4565b820191906000526020600020905b815481529060010190602001808311612fb757829003601f168201915b505050505060066003015461387a565b5b7f838ab28464562786a6c4ab2311964b82fa60bd9b14aa7e856af1f3f18d41a414600660030154866003015460405161301f929190615351565b60405180910390a150505050505050565b8173ffffffffffffffffffffffffffffffffffffffff168373ffffffffffffffffffffffffffffffffffffffff16141561309f576040517f08c379a00000000000000000000000000000000000000000000000000000000081526004016130969061508a565b60405180910390fd5b80600560008573ffffffffffffffffffffffffffffffffffffffff1673ffffffffffffffffffffffffffffffffffffffff16815260200190815260200160002060008473ffffffffffffffffffffffffffffffffffffffff1673ffffffffffffffffffffffffffffffffffffffff16815260200190815260200160002060006101000a81548160ff0219169083151502179055508173ffffffffffffffffffffffffffffffffffffffff168373ffffffffffffffffffffffffffffffffffffffff167f17307eab39ab6107e8899845ad3d59bd9653f200f220920489ca2b5937696c31836040516131909190614e18565b60405180910390a3505050565b6131a88484846125ff565b6131b484848484613919565b6131f3576040517f08c379a00000000000000000000000000000000000000000000000000000000081526004016131ea9061502a565b60405180910390fd5b50505050565b60606000821415613241576040518060400160405280600181526020017f300000000000000000000000000000000000000000000000000000000000000081525090506133a1565b600082905060005b6000821461327357808061325c906157d6565b915050600a8261326c91906154be565b9150613249565b60008167ffffffffffffffff8111156132b5577f4e487b7100000000000000000000000000000000000000000000000000000000600052604160045260246000fd5b6040519080825280601f01601f1916602001820160405280156132e75781602001600182028036833780820191505090505b5090505b6000851461339a5760018261330091906156ba565b9150600a8561330f9190615829565b603061331b9190615468565b60f81b818381518110613357577f4e487b7100000000000000000000000000000000000000000000000000000000600052603260045260246000fd5b60200101907effffffffffffffffffffffffffffffffffffffffffffffffffffffffffffff1916908160001a905350600a8561339391906154be565b94506132eb565b8093505050505b919050565b606060008251905060008114156133cf576040518060200160405280600081525091505061355f565b600060036002836133e09190615468565b6133ea91906154be565b60046133f69190615660565b905060006020826134079190615468565b67ffffffffffffffff811115613446577f4e487b7100000000000000000000000000000000000000000000000000000000600052604160045260246000fd5b6040519080825280601f01601f1916602001820160405280156134785781602001600182028036833780820191505090505b50905060006040518060600160405280604081526020016159f3604091399050600181016020830160005b8681101561351c5760038101905062ffffff818a015116603f8160121c168401518060081b905060ff603f83600c1c1686015116810190508060081b905060ff603f8360061c1686015116810190508060081b905060ff603f831686015116810190508060e01b905080845260048401935050506134a3565b506003860660018114613536576002811461354657613551565b613d3d60f01b6002830352613551565b603d60f81b60018303525b508484525050819450505050505b919050565b6135fc828260405160240161357a929190614e55565b6040516020818303038152906040527f319af333000000000000000000000000000000000000000000000000000000007bffffffffffffffffffffffffffffffffffffffffffffffffffffffff19166020820180517bffffffffffffffffffffffffffffffffffffffffffffffffffffffff83818316178352505050506136ce565b5050565b600081600001549050919050565b613628828260405180602001604052806000815250613ab0565b5050565b6136c8848484846040516024016136469493929190614fde565b6040516020818303038152906040527fbed728bf000000000000000000000000000000000000000000000000000000007bffffffffffffffffffffffffffffffffffffffffffffffffffffffff19166020820180517bffffffffffffffffffffffffffffffffffffffffffffffffffffffff83818316178352505050506136ce565b50505050565b60008151905060006a636f6e736f6c652e6c6f679050602083016000808483855afa5050505050565b505050565b613798848484846040516024016137169493929190614f5b565b6040516020818303038152906040527fd5cf17d0000000000000000000000000000000000000000000000000000000007bffffffffffffffffffffffffffffffffffffffffffffffffffffffff19166020820180517bffffffffffffffffffffffffffffffffffffffffffffffffffffffff83818316178352505050506136ce565b50505050565b60008144426040516020016137b4929190614d2c565b6040516020818303038152906040528051906020012060001c6137d79190615829565b9050919050565b61387682826040516024016137f4929190614e85565b6040516020818303038152906040527f4b5c4277000000000000000000000000000000000000000000000000000000007bffffffffffffffffffffffffffffffffffffffffffffffffffffffff19166020820180517bffffffffffffffffffffffffffffffffffffffffffffffffffffffff83818316178352505050506136ce565b5050565b61391483838360405160240161389293929190614ebc565b6040516020818303038152906040527ff362ca59000000000000000000000000000000000000000000000000000000007bffffffffffffffffffffffffffffffffffffffffffffffffffffffff19166020820180517bffffffffffffffffffffffffffffffffffffffffffffffffffffffff83818316178352505050506136ce565b505050565b600061393a8473ffffffffffffffffffffffffffffffffffffffff16613b0b565b15613aa3578373ffffffffffffffffffffffffffffffffffffffff1663150b7a02613963612460565b8786866040518563ffffffff1660e01b81526004016139859493929190614d73565b602060405180830381600087803b15801561399f57600080fd5b505af19250505080156139d057506040513d601f19601f820116820180604052508101906139cd91906140f0565b60015b613a53573d8060008114613a00576040519150601f19603f3d011682016040523d82523d6000602084013e613a05565b606091505b50600081511415613a4b576040517f08c379a0000000000000000000000000000000000000000000000000000000008152600401613a429061502a565b60405180910390fd5b805181602001fd5b63150b7a0260e01b7bffffffffffffffffffffffffffffffffffffffffffffffffffffffff1916817bffffffffffffffffffffffffffffffffffffffffffffffffffffffff191614915050613aa8565b600190505b949350505050565b613aba8383613b1e565b613ac76000848484613919565b613b06576040517f08c379a0000000000000000000000000000000000000000000000000000000008152600401613afd9061502a565b60405180910390fd5b505050565b600080823b905060008111915050919050565b600073ffffffffffffffffffffffffffffffffffffffff168273ffffffffffffffffffffffffffffffffffffffff161415613b8e576040517f08c379a0000000000000000000000000000000000000000000000000000000008152600401613b859061512a565b60405180910390fd5b613b97816123f4565b15613bd7576040517f08c379a0000000000000000000000000000000000000000000000000000000008152600401613bce9061504a565b60405180910390fd5b613be3600083836136f7565b6001600360008473ffffffffffffffffffffffffffffffffffffffff1673ffffffffffffffffffffffffffffffffffffffff1681526020019081526020016000206000828254613c339190615468565b92505081905550816002600083815260200190815260200160002060006101000a81548173ffffffffffffffffffffffffffffffffffffffff021916908373ffffffffffffffffffffffffffffffffffffffff160217905550808273ffffffffffffffffffffffffffffffffffffffff16600073ffffffffffffffffffffffffffffffffffffffff167fddf252ad1be2c89b69c2b068fc378daa952ba7f163c4a11628f55a4df523b3ef60405160405180910390a45050565b828054828255906000526020600020908101928215613d28579160200282015b82811115613d27578251825591602001919060010190613d0c565b5b509050613d359190613e32565b5090565b6040518060e00160405280600081526020016060815260200160608152602001600081526020016000815260200160008152602001600081525090565b6040518060c001604052806000815260200160608152602001606081526020016000815260200160008152602001600081525090565b828054613db8906157a4565b90600052602060002090601f016020900481019282613dda5760008555613e21565b82601f10613df357805160ff1916838001178555613e21565b82800160010185558215613e21579182015b82811115613e20578251825591602001919060010190613e05565b5b509050613e2e9190613e32565b5090565b5b80821115613e4b576000816000905550600101613e33565b5090565b6000613e62613e5d846153ab565b61537a565b905082815260208101848484011115613e7a57600080fd5b613e85848285615762565b509392505050565b600081359050613e9c81615934565b92915050565b600081359050613eb18161594b565b92915050565b600081359050613ec681615962565b92915050565b600081519050613edb81615962565b92915050565b600082601f830112613ef257600080fd5b8135613f02848260208601613e4f565b91505092915050565b600081359050613f1a81615979565b92915050565b600060208284031215613f3257600080fd5b6000613f4084828501613e8d565b91505092915050565b60008060408385031215613f5c57600080fd5b6000613f6a85828601613e8d565b9250506020613f7b85828601613e8d565b9150509250929050565b600080600060608486031215613f9a57600080fd5b6000613fa886828701613e8d565b9350506020613fb986828701613e8d565b9250506040613fca86828701613f0b565b9150509250925092565b60008060008060808587031215613fea57600080fd5b6000613ff887828801613e8d565b945050602061400987828801613e8d565b935050604061401a87828801613f0b565b925050606085013567ffffffffffffffff81111561403757600080fd5b61404387828801613ee1565b91505092959194509250565b6000806040838503121561406257600080fd5b600061407085828601613e8d565b925050602061408185828601613ea2565b9150509250929050565b6000806040838503121561409e57600080fd5b60006140ac85828601613e8d565b92505060206140bd85828601613f0b565b9150509250929050565b6000602082840312156140d957600080fd5b60006140e784828501613eb7565b91505092915050565b60006020828403121561410257600080fd5b600061411084828501613ecc565b91505092915050565b60006020828403121561412b57600080fd5b600061413984828501613f0b565b91505092915050565b600061414e8383614ae5565b905092915050565b61415f816156ee565b82525050565b6000614170826153eb565b61417a8185615419565b93508360208202850161418c856153db565b8060005b858110156141c857848403895281516141a98582614142565b94506141b48361540c565b925060208a01995050600181019050614190565b50829750879550505050505092915050565b6141e381615700565b82525050565b60006141f4826153f6565b6141fe818561542a565b935061420e818560208601615771565b61421781615916565b840191505092915050565b600061422d82615401565b614237818561543b565b9350614247818560208601615771565b61425081615916565b840191505092915050565b600061426682615401565b614270818561544c565b9350614280818560208601615771565b61428981615916565b840191505092915050565b600061429f82615401565b6142a9818561545d565b93506142b9818560208601615771565b80840191505092915050565b60006142d2600b8361545d565b91507f202d2d204e465420233a200000000000000000000000000000000000000000006000830152600b82019050919050565b600061431260328361544c565b91507f4552433732313a207472616e7366657220746f206e6f6e20455243373231526560008301527f63656976657220696d706c656d656e74657200000000000000000000000000006020830152604082019050919050565b6000614378601c8361544c565b91507f4552433732313a20746f6b656e20616c7265616479206d696e746564000000006000830152602082019050919050565b60006143b8600e8361545d565b91507f2c20226d61785f76616c7565223a0000000000000000000000000000000000006000830152600e82019050919050565b60006143f860248361544c565b91507f4552433732313a207472616e7366657220746f20746865207a65726f2061646460008301527f72657373000000000000000000000000000000000000000000000000000000006020830152604082019050919050565b600061445e60198361544c565b91507f4552433732313a20617070726f766520746f2063616c6c6572000000000000006000830152602082019050919050565b600061449e602c8361544c565b91507f4552433732313a206f70657261746f7220717565727920666f72206e6f6e657860008301527f697374656e7420746f6b656e00000000000000000000000000000000000000006020830152604082019050919050565b600061450460388361544c565b91507f4552433732313a20617070726f76652063616c6c6572206973206e6f74206f7760008301527f6e6572206e6f7220617070726f76656420666f7220616c6c00000000000000006020830152604082019050919050565b600061456a602a8361544c565b91507f4552433732313a2062616c616e636520717565727920666f7220746865207a6560008301527f726f2061646472657373000000000000000000000000000000000000000000006020830152604082019050919050565b60006145d060298361544c565b91507f4552433732313a206f776e657220717565727920666f72206e6f6e657869737460008301527f656e7420746f6b656e00000000000000000000000000000000000000000000006020830152604082019050919050565b600061463660328361545d565b91507f7d2c207b202274726169745f74797065223a202253747265657420637265646960008301527f62696c697479222c202276616c7565223a2000000000000000000000000000006020830152603282019050919050565b600061469c60048361545d565b91507f7d205d7d000000000000000000000000000000000000000000000000000000006000830152600482019050919050565b60006146dc60208361544c565b91507f4552433732313a206d696e7420746f20746865207a65726f20616464726573736000830152602082019050919050565b600061471c602c8361544c565b91507f4552433732313a20617070726f76656420717565727920666f72206e6f6e657860008301527f697374656e7420746f6b656e00000000000000000000000000000000000000006020830152604082019050919050565b600061478260298361544c565b91507f4552433732313a207472616e73666572206f6620746f6b656e2074686174206960008301527f73206e6f74206f776e00000000000000000000000000000000000000000000006020830152604082019050919050565b60006147e8600a8361545d565b91507f7b226e616d65223a2022000000000000000000000000000000000000000000006000830152600a82019050919050565b600061482860218361544c565b91507f4552433732313a20617070726f76616c20746f2063757272656e74206f776e6560008301527f72000000000000000000000000000000000000000000000000000000000000006020830152604082019050919050565b600061488e601f8361544c565b91507f436f7020697320616c7265616479206465616420796f752076756c74757265006000830152602082019050919050565b60006148ce601d8361545d565b91507f646174613a6170706c69636174696f6e2f6a736f6e3b6261736536342c0000006000830152601d82019050919050565b600061490e60318361544c565b91507f4552433732313a207472616e736665722063616c6c6572206973206e6f74206f60008301527f776e6572206e6f7220617070726f7665640000000000000000000000000000006020830152604082019050919050565b600061497460768361545d565b91507f222c20226465736372697074696f6e223a20225468697320697320616e204e4660008301527f542074686174206c6574732070656f706c6520706c617920696e20746865206760208301527f616d65204d657461766572736520536c617965722120696e20612050696d706560408301527f642066617368696f6e222c2022696d616765223a2022000000000000000000006060830152607682019050919050565b6000614a2660288361545d565b91507f7d2c207b202274726169745f74797065223a20224368617269736d61222c202260008301527f76616c7565223a200000000000000000000000000000000000000000000000006020830152602882019050919050565b6000614a8c603d8361545d565b91507f222c202261747472696275746573223a205b207b202274726169745f7479706560008301527f223a20224865616c746820506f696e7473222c202276616c7565223a200000006020830152603d82019050919050565b600060e083016000830151614afd6000860182614c18565b5060208301518482036020860152614b158282614222565b91505060408301518482036040860152614b2f8282614222565b9150506060830151614b446060860182614c18565b506080830151614b576080860182614c18565b5060a0830151614b6a60a0860182614c18565b5060c0830151614b7d60c0860182614c18565b508091505092915050565b600060c083016000830151614ba06000860182614c18565b5060208301518482036020860152614bb88282614222565b91505060408301518482036040860152614bd28282614222565b9150506060830151614be76060860182614c18565b506080830151614bfa6080860182614c18565b5060a0830151614c0d60a0860182614c18565b508091505092915050565b614c2181615758565b82525050565b614c3081615758565b82525050565b614c47614c4282615758565b61581f565b82525050565b6000614c58826147db565b9150614c64828a614294565b9150614c6f826142c5565b9150614c7b8289614294565b9150614c8682614967565b9150614c928288614294565b9150614c9d82614a7f565b9150614ca98287614294565b9150614cb4826143ab565b9150614cc08286614294565b9150614ccb82614a19565b9150614cd78285614294565b9150614ce282614629565b9150614cee8284614294565b9150614cf98261468f565b915081905098975050505050505050565b6000614d15826148c1565b9150614d218284614294565b915081905092915050565b6000614d388285614c36565b602082019150614d488284614c36565b6020820191508190509392505050565b6000602082019050614d6d6000830184614156565b92915050565b6000608082019050614d886000830187614156565b614d956020830186614156565b614da26040830185614c27565b8181036060830152614db481846141e9565b905095945050505050565b6000606082019050614dd46000830186614156565b614de16020830185614c27565b614dee6040830184614c27565b949350505050565b60006020820190508181036000830152614e108184614165565b905092915050565b6000602082019050614e2d60008301846141da565b92915050565b60006020820190508181036000830152614e4d818461425b565b905092915050565b60006040820190508181036000830152614e6f818561425b565b9050614e7e6020830184614156565b9392505050565b60006040820190508181036000830152614e9f818561425b565b90508181036020830152614eb3818461425b565b90509392505050565b60006060820190508181036000830152614ed6818661425b565b90508181036020830152614eea818561425b565b9050614ef96040830184614c27565b949350505050565b60006080820190508181036000830152614f1b818761425b565b90508181036020830152614f2f818661425b565b9050614f3e6040830185614c27565b8181036060830152614f50818461425b565b905095945050505050565b60006080820190508181036000830152614f75818761425b565b90508181036020830152614f89818661425b565b9050614f986040830185614c27565b614fa56060830184614c27565b95945050505050565b60006040820190508181036000830152614fc8818561425b565b9050614fd76020830184614c27565b9392505050565b60006080820190508181036000830152614ff8818761425b565b90506150076020830186614c27565b6150146040830185614c27565b6150216060830184614156565b95945050505050565b6000602082019050818103600083015261504381614305565b9050919050565b600060208201905081810360008301526150638161436b565b9050919050565b60006020820190508181036000830152615083816143eb565b9050919050565b600060208201905081810360008301526150a381614451565b9050919050565b600060208201905081810360008301526150c381614491565b9050919050565b600060208201905081810360008301526150e3816144f7565b9050919050565b600060208201905081810360008301526151038161455d565b9050919050565b60006020820190508181036000830152615123816145c3565b9050919050565b60006020820190508181036000830152615143816146cf565b9050919050565b600060208201905081810360008301526151638161470f565b9050919050565b6000602082019050818103600083015261518381614775565b9050919050565b600060208201905081810360008301526151a38161481b565b9050919050565b600060208201905081810360008301526151c381614881565b9050919050565b600060208201905081810360008301526151e381614901565b9050919050565b600060208201905081810360008301526152048184614b88565b905092915050565b60006020820190506152216000830184614c27565b92915050565b600060c08201905061523c6000830189614c27565b818103602083015261524e818861425b565b90508181036040830152615262818761425b565b90506152716060830186614c27565b61527e6080830185614c27565b61528b60a0830184614c27565b979650505050505050565b600060e0820190506152ab600083018a614c27565b81810360208301526152bd818961425b565b905081810360408301526152d1818861425b565b90506152e06060830187614c27565b6152ed6080830186614c27565b6152fa60a0830185614c27565b61530760c0830184614c27565b98975050505050505050565b60006060820190506153286000830186614c27565b818103602083015261533a818561425b565b90506153496040830184614c27565b949350505050565b60006040820190506153666000830185614c27565b6153736020830184614c27565b9392505050565b6000604051905081810181811067ffffffffffffffff821117156153a1576153a06158e7565b5b8060405250919050565b600067ffffffffffffffff8211156153c6576153c56158e7565b5b601f19601f8301169050602081019050919050565b6000819050602082019050919050565b600081519050919050565b600081519050919050565b600081519050919050565b6000602082019050919050565b600082825260208201905092915050565b600082825260208201905092915050565b600082825260208201905092915050565b600082825260208201905092915050565b600081905092915050565b600061547382615758565b915061547e83615758565b9250827fffffffffffffffffffffffffffffffffffffffffffffffffffffffffffffffff038211156154b3576154b261585a565b5b828201905092915050565b60006154c982615758565b91506154d483615758565b9250826154e4576154e3615889565b5b828204905092915050565b6000808291508390505b6001851115615539578086048111156155155761551461585a565b5b60018516156155245780820291505b808102905061553285615927565b94506154f9565b94509492505050565b600061554d82615758565b915061555883615758565b92506155857fffffffffffffffffffffffffffffffffffffffffffffffffffffffffffffffff848461558d565b905092915050565b60008261559d5760019050615659565b816155ab5760009050615659565b81600181146155c157600281146155cb576155fa565b6001915050615659565b60ff8411156155dd576155dc61585a565b5b8360020a9150848211156155f4576155f361585a565b5b50615659565b5060208310610133831016604e8410600b841016171561562f5782820a90508381111561562a5761562961585a565b5b615659565b61563c84848460016154ef565b925090508184048111156156535761565261585a565b5b81810290505b9392505050565b600061566b82615758565b915061567683615758565b9250817fffffffffffffffffffffffffffffffffffffffffffffffffffffffffffffffff04831182151516156156af576156ae61585a565b5b828202905092915050565b60006156c582615758565b91506156d083615758565b9250828210156156e3576156e261585a565b5b828203905092915050565b60006156f982615738565b9050919050565b60008115159050919050565b60007fffffffff0000000000000000000000000000000000000000000000000000000082169050919050565b600073ffffffffffffffffffffffffffffffffffffffff82169050919050565b6000819050919050565b82818337600083830152505050565b60005b8381101561578f578082015181840152602081019050615774565b8381111561579e576000848401525b50505050565b600060028204905060018216806157bc57607f821691505b602082108114156157d0576157cf6158b8565b5b50919050565b60006157e182615758565b91507fffffffffffffffffffffffffffffffffffffffffffffffffffffffffffffffff8214156158145761581361585a565b5b600182019050919050565b6000819050919050565b600061583482615758565b915061583f83615758565b92508261584f5761584e615889565b5b828206905092915050565b7f4e487b7100000000000000000000000000000000000000000000000000000000600052601160045260246000fd5b7f4e487b7100000000000000000000000000000000000000000000000000000000600052601260045260246000fd5b7f4e487b7100000000000000000000000000000000000000000000000000000000600052602260045260246000fd5b7f4e487b7100000000000000000000000000000000000000000000000000000000600052604160045260246000fd5b6000601f19601f8301169050919050565b60008160011c9050919050565b61593d816156ee565b811461594857600080fd5b50565b61595481615700565b811461595f57600080fd5b50565b61596b8161570c565b811461597657600080fd5b50565b61598281615758565b811461598d57600080fd5b5056fe4d696e746564204e465420772f20746f6b656e496420257320616e6420636861726163746572496e64657820257320666f72202573596f7520617265206e6f7420746865206f776e6572206f6620746869732050696d7020796f75206c69617220214142434445464748494a4b4c4d4e4f505152535455565758595a6162636465666768696a6b6c6d6e6f707172737475767778797a303132333435363738392b2f547279696e6720746f2072616964206f6e20436f7020772f20616464726573733a202d20436f702025732068617320257320485020616e642025732053747265657420637265642d2050696d70202025732061626f757420746f2061747461636b2e2048617320257320485020616e64202573205374726565742063726564a2646970667358221220226b12f6711b808410706b28ebd4ddcbbf6d90d281980c2107a29bc8ae973cfc64736f6c63430008000033202020446f6e6520696e697469616c697a696e6720257320772f2048502025732c20696d67202573446f6e6520696e697469616c697a696e6720257320772f2048502025732c20696d67202573",
  "linkReferences": {},
  "deployedLinkReferences": {}
}